:020000040800F2
:1000000000500020190C0008690C0008690C000859
:10001000690C0008690C0008690C00080000000069
:10002000000000000000000000000000690C000853
:10003000690C000800000000690C00083109000884
:10004000690C0008690C0008690C0008690C0008BC
:10005000690C0008690C0008690C0008690C0008AC
:10006000690C0008690C0008690C0008690C00089C
:10007000690C0008690C0008690C0008690C00088C
:10008000690C0008690C0008690C0008690C00087C
:10009000690C0008690C0008690C0008690C00086C
:1000A000690C0008690C0008690C0008690C00085C
:1000B000690C0008690C0008690C0008690C00084C
:1000C000690C0008690C0008690C0008690C00083C
:1000D000690C0008690C0008690C0008690C00082C
:1000E000690C0008690C000800000000690C000899
:1000F000690C0008690C0008690C0008690C00080C
:10010000690C0008690C0008690C0008690C0008FB
:10011000690C0008690C0008690C0008690C0008EB
:10012000690C0008690C0008690C0008690C0008DB
:1001300010B5054C237833B9044B13B10448AFF321
:1001400000800123237010BD040000200000000087
:10015000640D000808B5034B1BB103490348AFF316
:10016000008008BD0000000008000020640D0008A9
:10017000704700BF80B400AF0A4B1B68094A23F4E4
:1001800080431360074B1B68064A23F40043136047
:10019000054B9B68044A23F40063936000BFBD468F
:1001A00080BC7047041002400024014080B400AFBE
:1001B000044B9B68034A43F00103936000BFBD46B4
:1001C00080BC70470024014080B400AF044B9B68A2
:1001D000034A23F00203936000BFBD4680BC704712
:1001E0000024014080B400AF124B9B68114A43F0D9
:1001F0000803936000BF0F4B9B68DB0803F001030B
:10020000002BF8D10B4B9B680A4A43F00403936020
:1002100000BF084B9B689B0803F00103002BF8D13B
:10022000044B9B68034A43F00103936000BFBD4643
:1002300080BC70470024014080B483B000AF034607
:100240000A46FB711346BB711E4B0022DA621D4B3E
:1002500000221A631B4AFB7953631A4B1969FA7916
:1002600013465B001344072202FA03F3DB43154AEB
:100270000B401361134B1969B879FA7913465B0087
:10028000134400FA03F30F4A0B4313610D4B1B6831
:1002900003F00203002B0DD00A4BDB6C9BB2C3F3BF
:1002A0000B039AB2084B1A80064B9B68054A43F031
:1002B00001039360044B1B889BB218460C37BD4664
:1002C00080BC7047002401402000002080B483B02F
:1002D00000AF0346FB710B46BB7113467B71FB7984
:1002E000022B00F2A280BB790F2B00F29E80FB79DB
:1002F000012B36D0022B66D0002B00D095E0BB79C5
:10030000072B15D84B4B1A68BB799B000F2101FABC
:1003100003F3DB43474913400B60464B1A68797976
:10032000BB799B0001FA03F3424913430B607CE065
:10033000BB79083BBB71404B1A68BB799B000F210E
:1003400001FA03F3DB433C4913400B603A4B1A6854
:100350007979BB799B0001FA03F3374913430B60AA
:1003600063E0BB79072B15D8344B1A68BB799B0027
:100370000F2101FA03F3DB43304913400B602F4B8D
:100380001A687979BB799B0001FA03F32B4913436F
:100390000B604AE0BB79083BBB71294B1A68BB79FB
:1003A0009B000F2101FA03F3DB43254913400B6047
:1003B000234B1A687979BB799B0001FA03F3204932
:1003C00013430B6031E0BB79072B15D81D4B1A681E
:1003D000BB799B000F2101FA03F3DB43194913405A
:1003E0000B60184B1A687979BB799B0001FA03F30B
:1003F000144913430B6018E0BB79083BBB71124BE7
:100400001A68BB799B000F2101FA03F3DB430E4905
:1004100013400B600C4B1A687979BB799B0001FA89
:1004200003F3094913430B6000BF00BF0C37BD46FF
:1004300080BC70470008014004080140000C0140E6
:10044000040C0140001001400410014080B483B04E
:1004500000AF0346FB710B46BB7113467B71FB7902
:10046000022B64D8BB790F2B61D8FB79012B22D0EA
:10047000022B3ED0002B00D059E07B79002B0DD011
:10048000012B00D053E02C4B1B68BA79012101FAF3
:1004900002F21146284A0B4313600BE0264B1B68FF
:1004A000BA79012101FA02F2D2431146224A0B40E5
:1004B000136000BF3BE07B79002B0DD0012B00D0F7
:1004C00035E01E4B1B68BA79012101FA02F2114690
:1004D0001A4A0B4313600BE0184B1B68BA790121D1
:1004E00001FA02F2D2431146144A0B40136000BFD6
:1004F0001DE07B79002B0DD0012B00D017E0104BB5
:100500001B68BA79012101FA02F211460C4A0B4329
:1005100013600BE00A4B1B68BA79012101FA02F261
:10052000D2431146064A0B40136000BF00BF00BF14
:100530000C37BD4680BC70470C0801400C0C0140D4
:100540000C10014080B485B000AF78600023FB60E0
:100550000DE000237B8103E000BF7B8901337B81B9
:100560007B89B3F50D7FF7D9FB680133FB60FA682F
:100570007B689A42EDD300BF1437BD4680BC7047FC
:1005800080B500AF2320FFF7DDFF382000F018F81A
:100590000120FFF7D7FF0C2000F012F80120FFF731
:1005A000D1FF00F0CEF8062000F00AF80220FFF795
:1005B000C9FF002202210020FFF748FF00BF80BDD5
:1005C00080B582B000AF0346FB7100220B210020F2
:1005D000FFF73CFF00220C210020FFF737FFFB79DB
:1005E000184600F01BF800BF0837BD4680BD80B537
:1005F00082B000AF0346FB7101220B210020FFF700
:1006000025FF00220C210020FFF720FFFB79184670
:1006100000F004F800BF0837BD4680BD80B584B047
:1006200000AF0346FB710023FB73FA79FB7B591C77
:10063000F97342FA03F3DBB203F00103DBB21A46AB
:1006400003210020FFF702FFFA79FB7B591CF973A5
:1006500042FA03F3DBB203F00103DBB21A460421D2
:100660000020FFF7F3FEFA79FB7B591CF97342FA7D
:1006700003F3DBB203F00103DBB21A4605210020CD
:10068000FFF7E4FEFA79FB7B591CF97342FA03F396
:10069000DBB203F00103DBB21A4606210020FFF7AC
:1006A000D5FEFA79FB7B591CF97342FA03F3DBB2EE
:1006B00003F00103DBB21A4607210020FFF7C6FE54
:1006C000FA79FB7B591CF97342FA03F3DBB203F0AE
:1006D0000103DBB21A4608210020FFF7B7FEFA79C2
:1006E000FB7B591CF97342FA03F3DBB203F00103FD
:1006F000DBB21A4609210020FFF7A8FEFA79FB7B3E
:10070000591CF97342FA03F3DBB203F00103DBB2C5
:100710001A460A210020FFF799FE0122022100203B
:10072000FFF794FE0220FFF70DFF002202210020B8
:10073000FFF78CFE0220FFF705FF00BF1037BD4614
:1007400080BD80B500AF0120FFF73AFF0220FFF720
:10075000F9FE00BF80BD80B582B000AF03460A46F7
:10076000FB711346BB71FB79012B06D1BB79803B32
:10077000DBB21846FFF724FF08E0FB79022B05D116
:10078000BB79403BDBB21846FFF71AFF00BF0837C2
:10079000BD4680BD80B584B000AF78600023FB7398
:1007A00009E0FB7B7A6813441B781846FFF71FFFAC
:1007B000FB7B0133FB73FB7B7A6813441B78002BB4
:1007C000EFD100BF1037BD4680BD000080B483B0BC
:1007D00000AF00237B60194B1B68184A23F080731D
:1007E0001360174B1B68164A43F400331360134B16
:1007F0001B68124A43F080731360114B1B68104A48
:1008000023F0010313600E4B1B680D4A43F00203F3
:10081000136002E07B6801337B60084B1B685B0E52
:1008200003F00103002B04D17B6842F21072934263
:10083000F0D100BF0C37BD4680BC704700100240AD
:100840000410024080B483B000AF03460A46FB7137
:100850001346BB71BB791F2B28D8FB79012B0FD016
:10086000022B18D0002B00D020E0134B1B68BA7964
:10087000012101FA02F211460F4A0B43136015E001
:100880000E4B1B68BA79012101FA02F211460B4A9C
:100890000B4313600AE00A4B1B68BA79012101FA85
:1008A00002F21146064A0B43136000BF00BF0C372B
:1008B000BD4680BC704700BF141002401C100240AF
:1008C0001810024080B400AF034B00221A6000BF32
:1008D000BD4680BC704700BF10E000E080B483B02C
:1008E00000AF786039607B68B3F1807F14D80D4A1F
:1008F0007B6853600B4B1B680A4A43F0010313608B
:10090000094A3B681360094B01221A70054B1B68AA
:10091000044A43F00203136000BF0C37BD4680BC9D
:10092000704700BF10E000E000000020220000201F
:1009300080B582B000AF124B1B78012B11D1114B47
:100940001B68104A23F0020313600E4B1B680D4A0C
:1009500023F0010313600B4B00225A60094B002265
:100960009A60094B1B689847064B1B681B0CDBB24F
:1009700003F00103FB7100BF0837BD4680BD00BF17
:100980002200002010E000E00000002080B485B0CC
:1009900000AF78600023FB600DE000237B8103E063
:1009A00000BF7B8901337B817B89B3F50D7FF7D94C
:1009B000FB680133FB60FA687B689A42EDD300BFA5
:1009C0001437BD4680BC704780B582B000AFC7F811
:1009D00004C0114B1B78002B0BD10F4B01221A7056
:1009E00004210020FFF728FC03461A460B4B1A800F
:1009F0000EE0094B1B78012B0AD1074B00221A701D
:100A000004210120FFF718FC03461A46044B1A8004
:100A100000BF0837BD4680BD28000020240000200C
:100A200026000020F0B589B000AF07F13803FB6164
:100A300007F10C0407F10C056F4B26460FCB86E837
:100A40000F00A5606D4BE36004F1100319462046CA
:100A5000FFF78EFBFFF7BAFE02210220FFF7F2FE3E
:100A600009210220FFF7EEFE022202210020FFF7FB
:100A70002DFC022203210020FFF728FC0222042182
:100A80000020FFF723FC022205210020FFF71EFCB7
:100A9000022206210020FFF719FC02220721002074
:100AA000FFF714FC022208210020FFF70FFC0222AE
:100AB00009210020FFF70AFC02220A210020FFF78B
:100AC00005FC02220B210020FFF700FC02220C2172
:100AD0000020FFF7FBFB002200210020FFF7F6FBC0
:100AE000002201210020FFF7F1FBFFF749FDFFF78E
:100AF00041FBFFF75BFBFFF767FBFFF773FBFFF7BC
:100B0000E1FEFFF71EFE07F10C0343F00103194657
:100B100042F20F70FFF7E2FE00210120FFF71BFEFB
:100B2000374B1B889BB2374AA2FB0323DB089BB2DF
:100B3000184607F108030A22194600F0D3F8324894
:100B4000FFF728FE07F108031846FFF723FE2C4B9A
:100B50001B889AB22B4BA3FB0213D9080B469B00B0
:100B60000B445B00D31A9BB2184607F108030A2214
:100B7000194600F0B7F807F108031846FFF70AFE18
:100B80002248FFF707FE00210220FFF7E4FD204B7B
:100B90001B889BB21B4AA2FB0323DB089BB21846AF
:100BA0003B1D0A22194600F09DF81A48FFF7F2FD96
:100BB0003B1D1846FFF7EEFD154B1B889AB2114BF3
:100BC000A3FB0213D9080B469B000B445B00D31A0E
:100BD0009BB218463B1D0A22194600F083F83B1DC4
:100BE0001846FFF7D7FD0948FFF7D4FD4FF47A7098
:100BF000FFF7CCFE85E700BF7C0D0008C90900089F
:100C000024000020CDCCCCCC8C0D0008980D000821
:100C1000260000209C0D00080D488546AFF300809B
:100C20000C480D490D4A002302E0D458C450043347
:100C3000C4188C42F9D30A4A0A4C002301E013601D
:100C40000432A242FBD300F011F8FFF7EBFEFEE7FF
:100C5000005000200000002004000020D40D0008F7
:100C6000040000202C000020FEE7000070B50025E5
:100C70000C4E0D4CA41BA410A54209D100F072F833
:100C800000250A4E0A4CA41BA410A54205D170BD34
:100C900056F8253098470135EEE756F82530984745
:100CA0000135F2E7CC0D0008CC0D0008CC0D000892
:100CB000D00D0008931E222B10B50C4604D900233A
:100CC0001C460B70204610BD0A2A09D1002807DAFD
:100CD0002D230B7001214042214400F005F8F1E77B
:100CE0000021F9E7FFF7E6BFF0B58BB005460C46EB
:100CF0006E461B4B03F1200C3746186859680833C1
:100D000003C763453E46F7D118681B7938603B71CD
:100D1000931E222B4FF0000304D923701C4620465B
:100D20000BB0F0BD661EB5FBF2F002FB10550AAF2A
:100D30003D4415F8285C591C06F8015F054668B962
:100D4000224660542344191B101B8142E7DD1178B1
:100D5000187802F8010B03F80119F4E70B46E2E7F3
:100D6000A70D0008F8B500BFF8BC08BC9E46704748
:0C0D7000F8B500BFF8BC08BC9E467047F8
:100D7C00DFF804C0DFF804F0000000000000000001
:100D8C004C445228766F6C74293A000020560000AF
:100D9C00504F5428766F6C74293A0030313233340A
:100DAC0035363738396162636465666768696A6BC2
:100DBC006C6D6E6F707172737475767778797A006A
:040DCC0055010008C5
:040DD00031010008E5
:040DD400FF0000001C
:0400000508000C19CA
:00000001FF
